:020000040800F2
:10000000680A002089010008590E0008A9050008A7
:1000100069060008AD040008651C00080000000027
:10002000000000000000000000000000B9130008FC
:10003000AF0400080000000069130008451900081B
:10004000A3010008A3010008A3010008A301000800
:10005000A3010008A3010008A3010008A3010008F0
:10006000A3010008A3010008A3010008A3010008E0
:10007000A3010008A3010008A3010008A3010008D0
:10008000A3010008A3010008A3010008A3010008C0
:10009000A3010008A3010008A3010008A3010008B0
:1000A000A3010008A3010008A3010008A3010008A0
:1000B00099190008A3010008A3010008A301000882
:1000C000A3010008A3010008A3010008A301000880
:1000D000A3010008A3010008A3010008A301000870
:1000E000A3010008A3010008A301000800F002F822
:1000F00000F03AF80AA090E8000C82448344AAF188
:100100000107DA4501D100F02FF8AFF2090EBAE885
:100110000F0013F0010F18BFFB1A43F0010318473B
:100120003434000054340000103A24BF78C878C139
:10013000FAD8520724BF30C830C144BF04680C60ED
:10014000704700000023002400250026103A28BF35
:1001500078C1FBD8520728BF30C148BF0B60704739
:100160001FB51FBD10B510BD00F068F81146FFF7B0
:10017000F7FF01F079FD00F086F803B4FFF7F2FF16
:1001800003BC00F089F8000009488047094800478F
:10019000FEE7FEE7FEE7FEE7FEE7FEE7FEE7FEE737
:1001A000FEE7FEE704480549054A064B7047000094
:1001B00049190008ED00000868040020680A0020C2
:1001C000680600206806002010B5203AC0F00B80B9
:1001D000B1E81850203AA0E81850B1E81850A0E84B
:1001E0001850BFF4F5AF5FEA027C24BFB1E81850A5
:1001F000A0E8185044BF18C918C0BDE810405FEA15
:10020000827C24BF51F8043B40F8043B08BF704790
:10021000D20728BF31F8023B48BF11F8012B28BF95
:1002200020F8023B48BF00F8012B70477047704729
:100230007047000000487047040400207546FFF72F
:10024000F9FFAE4605006946534620F00700854693
:1002500018B020B5FFF7A6FFBDE820404FF000061C
:100260004FF000074FF000084FF0000B21F007019E
:10027000AC46ACE8C009ACE8C009ACE8C009ACE8E1
:10028000C0098D46704710B50446AFF30080204684
:10029000BDE81040FFF771BF01491820ABBEFEE773
:1002A000260002007047002904D0816841F0010156
:1002B00081607047816821F00101816070470146CB
:1002C00000208968490700D501207047C06C80B2C2
:1002D00070470246002012680A4200D00120704791
:1002E000014600208968090700D5012070470000F9
:1002F00010B542680E4B1A400C790B6842EA042292
:100300001343436082680B4B1A40D1E902432343F5
:100310004C7942EA440213438360C26A22F47002B9
:10032000097C491EC9B242EA0151C16210BD0000F8
:10033000FFFEF0FFFDF7F1FF70B5072609290AD986
:10034000C568A1F10A0404EB4404A640B543A340E8
:100350001D43C56007E0056901EB4104A640B543B4
:10036000A3401D4305611F23072A09D2446B521E77
:1003700002EB820293409C4391400C43446370BD66
:100380000D2A09D2046BD21F02EB820293409C43D8
:1003900091400C43046370BDC46A0D3A02EB8202C3
:1003A00093409C4391400C43C46270BD816841F00E
:1003B000080181607047002904D0816841F4A001E0
:1003C00081607047816821F4A00181607047816875
:1003D00041F004018160704710B5084C01212046AE
:1003E000FFF7E9FF02212046FFF773FF0028F9D04D
:1003F0002046BDE81040FFF769BF0000002401401F
:1004000070B586B00121480200F0C8FF0121042028
:1004100000F0C4FF4FF4004000F0A8FF00248DF866
:1004200017400125ADF8145003208DF816001D4E1D
:1004300005A9304600F058F818218DF8171006214C
:10044000ADF8141005A9304600F04EF8164E0523FD
:10045000012200213046FFF76FFF009403944FF410
:10046000602002908DF805408DF804408DF8105002
:1004700069463046FFF73CFF01213046FFF713FF86
:100480003046FFF793FF3046FFF72AFF0128FAD0E6
:100490003046FFF79CFF3046FFF711FF0128FAD0E6
:1004A00006B070BD0008014000240140FEE770471F
:1004B00000B502464FF47A7302E0184600F004F8E3
:1004C000521E501CF9D100BD00EBC000C1004FF01E
:1004D000E020416100218161052101610169C903B9
:1004E000FCD50421016170472DE9F0410022CC7850
:1004F00004F00F03E40601D58C7823430C784FF009
:100500000F0714F0FF0F4FF0010C1CD005680CFA18
:1005100002F40E882640A64211D1960007FA06F88A
:1005200025EA080503FA06F848EA0505CE78282EDC
:1005300002D0482E02D002E0446100E00461521C67
:10054000082AE4D305600A88FF2A1ED945680022DC
:1005500002F108060CFA06F40E882640A64210D1D5
:10056000960007FA06F825EA080503FA06F848EAAD
:100570000505CE78282E00D14461CE78482E00D1D2
:100580000461521C082AE3D34560BDE8F0810246AD
:10059000002092680A4200D001207047002A01D052
:1005A0000161704741617047FEE7000070B50024AB
:1005B0000A4D80212846FFF7EAFF60B91420FFF7B3
:1005C00077FF80212846FFF7E2FF0028F9D01420AA
:1005D000FFF76EFF0124204670BD0000000C0140B3
:1005E00008B50121082000F0D9FE28208DF803006D
:1005F0008020ADF8000003208DF802006946024813
:10060000FFF772FF08BD0000000C01407FB501211B
:10061000084600F0B5FE41F28730ADF808004720EB
:10062000ADF804000024ADF80A40ADF806404FF0E4
:10063000804501A9284601F0C7FA1C218DF8001059
:100640008DF8014001218DF802108DF803106846E5
:1006500000F004FC01221146284601F0CCF90121EA
:10066000284601F0B0F97FBDFEE700002DE9F14F0B
:1006700082B000F0EDFF01F077F88D49029802F0AA
:100680004BF802F00BF902460826072330213C20E4
:10069000009600F097FD00F0CFFDFFF787FF0028E0
:1006A000FBD0C820FFF704FF00F028F901F0A0FFFD
:1006B00004460D46029801F09BFF4FF033327D4B0C
:1006C00001F0AEFD8946074602460B462046294604
:1006D00001F020FC04460D4600F0BAFF20462946F2
:1006E00001F070FDCDE90060024607230C213B209C
:1006F00000F068FD029802F0D1F882460246072316
:1007000030213C20009600F05DFD08236AA20C21F8
:10071000152000F07BFD082368A20C21322000F098
:1007200075FD00F089FD40F6C4184046FFF7C0FE95
:1007300000F070FBC820FFF7BBFE00F0DFF801F00F
:1007400057FF04460D463A464B462046294601F0DF
:10075000E1FB04460D4600F07BFF2046294601F0F0
:1007600031FD8346024607230C213B20009600F012
:1007700029FD5246072330213C20009600F022FD3F
:1007800008234FA20C21152000F040FD08234BA2A6
:100790000C21322000F03AFD00F04EFD4046FFF7FC
:1007A00087FE484800F03CFE40F21D10FFF780FE37
:1007B000454C204600F034FE4FF4FA60FFF778FE17
:1007C000424800F02DFE4FF48070FFF771FE204686
:1007D00000F026FEC820FFF76BFE00F08FF801F056
:1007E00007FF04460D463A464B462046294601F08F
:1007F00091FB04460D4600F02BFF2046294601F0F0
:10080000E1FC0446024607230C213B20009600F041
:10081000D9FC5246072330213C20009600F0D2FC40
:1008200008232BA20C21152000F0F0FC00F004FDA1
:100830004046FFF73DFE00F043FB0021062325A2C2
:10084000084600F0E3FC082326A20C210D2000F04E
:10085000DDFC082325A21D210D2000F0D7FC082374
:1008600024A230210D2000F0D1FC082321A2302148
:100870000D2000F0CBFC019A07230C213C200096B0
:1008800000F0A0FC5A4607231D213C20009600F0F2
:1008900099FC2246072330213C20009600F092FC70
:1008A00000F0CAFCFFF782FE0028FBD0F5E600004E
:1008B0000000C8423333D33F780000002D00000011
:1008C00079000000000016430000B4420000F0412F
:1008D0007A0000004D61676E657469632066696522
:1008E0006C643A004278203D000000004279203DCF
:1008F00000000000427A203D0000000010B5FFF724
:100900006BFD01F0EBFF10F0FF4FF8D0002208491B
:10091000884202DD02F0C2F802460649104601F0A4
:10092000F1FFBDE810406FF00A0102F08CB9000041
:1009300000A007450080CF442DE9FC5FDFF88091DF
:100940004FF00008C246CB460120019000263746F2
:10095000AEE0019800F0D6FDFFF728FE0028FBD09E
:10096000FFF7CCFF574D294601F0D6FE01F096FF68
:1009700002460624052315211B20009400F022FCCA
:1009800000F05AFCFFF712FE0028FBD0FFF7B6FF7D
:10099000294601F0C1FE01F081FF02460523152121
:1009A0006020009400F00EFC00F046FC52465B46CE
:1009B0004046494601F0FEF94FF0FF3202F015F9CA
:1009C00004460D460022404B2046294601F0A2FA7B
:1009D00004460D464FF033323C4B2046294601F089
:1009E00099FA04460D460198401E05283DD8019805
:1009F00007283AD2DFE800F039040D161F2831002D
:100A00000022334B2046294601F084FA04460D4665
:100A10002BE000222F4B2046294601F07BFA0446AA
:100A20000D4622E000222C4B2046294601F072FAA6
:100A300004460D4619E00022284B2046294601F0C5
:100A400069FA04460D4610E00022254B204629464F
:100A500001F060FA04460D4607E00022214B2046D3
:100A6000294601F057FA04460D4622462B463046E9
:100A7000394601F09FF906460F462046294601F007
:100A8000A1FB024608200090062330213C2000F004
:100A900099FB00F0D1FB40F2DC50FFF709FD00F0BC
:100AA00063FEFFF783FD0028FBD00198401C0190F6
:100AB000019806287FF74DAF30463946BDE8FC9FC8
:100AC0000000F03F00002041000002403333D33FDC
:100AD00000000840000018400000224000002840AC
:100AE00000002E40000032402DE9F84FDFF89491CD
:100AF0004FF000084FF0010A002637464FF0060B72
:100B0000B2E0504600F0FEFCFFF750FD0028FBD09D
:100B1000FFF7F4FE5C4901F0FFFD01F0BFFE024665
:100B2000052315211B20CDF800B000F04BFB00F091
:100B300083FBFFF73BFD0028FBD0FFF7DFFE01F052
:100B400057FD04460D46FFF7D9FE4F4901F0E4FD7D
:100B500001F0A4FE0246052315216020CDF800B067
:100B600000F030FB00F068FB22462B464046494629
:100B700001F020F94FF0FF3202F037F804460D463D
:100B80000022424B2046294601F0C4F904460D4696
:100B90003F4A404B2046294601F0BCF904460D4629
:100BA000AAF1010005283DD8BAF1070F3AD2DFE8D3
:100BB0000AF039040D161F2831000022364B20465A
:100BC000294601F0A7F904460D462BE00022324BDE
:100BD0002046294601F09EF904460D4622E00022F7
:100BE0002D4B2046294601F095F904460D4619E0A3
:100BF0000022294B2046294601F08CF904460D4677
:100C000010E00022244B2046294601F083F90446D7
:100C10000D4607E00022204B2046294601F07AF9D4
:100C200004460D4622462B463046394601F0C2F8AE
:100C300006460F462046294601F0C4FA024608201F
:100C4000034600903021462000F0BCFA00F0F4FA90
:100C500040F2DC50FFF72CFC00F086FDFFF7A6FC0D
:100C60000028FBD00AF1010ABAF1060F7FF749AF5D
:100C700001B030463946BDE8F04F0022074B01F085
:100C800049B900000000F03F0000C84200000240E7
:100C90009A9999999999B93F000008400000184025
:100CA00070B5082347A20E211C2000F0AFFA0823DC
:100CB00047A22321152000F0A9FA00F0BDFAFFF7A2
:100CC00075FC0028FBD000F0EFFD444C204600F0FE
:100CD00077FB204600F08CFB6420FFF7E9FB08233C
:100CE0003FA232215F2000F091FA6420FFF7E0FB81
:100CF00000F0A2FA3B4C204600F062FB204600F0D8
:100D000077FB6420FFF7D4FB082335A23221612052
:100D100000F07CFA6420FFF7CBFB00F08DFA324D37
:100D2000284600F04DFB284600F062FB6420FFF7E8
:100D3000BFFB08232AA23221632000F067FA642057
:100D4000FFF7B6FB00F078FA204600F039FB2046AA
:100D500000F04EFB6420FFF7ABFB082320A23221FA
:100D6000652000F053FA4FF49670FFF7A1FB00F0F6
:100D700063FAFFF731FBA0B100F0A2F808231BA231
:100D80000E21162000F042FA08231BA2232138204E
:100D900000F03CFA00F050FAFFF708FC0028FBD006
:100DA00070BD00F08DF8082314A20E21122000F06F
:100DB0002DFA082314A223211E2000F027FA00F0A8
:100DC0003BFAE9E75072657373204B6579000000C8
:100DD000746F20636F6E74696E7565000000164352
:100DE0002E0000000000B4420000F041457665721C
:100DF000797468696E6700004F4B000048616C6C45
:100E00002073656E736F72004572726F72212121BB
:100E10002100000010B50D4800F0EAFA40F21D1064
:100E2000FFF746FB0A4C204600F0E2FA4FF4FA6066
:100E3000FFF73EFB074800F0DBFA4FF48070FFF746
:100E400037FB2046BDE8104000F0D2BA0000164340
:100E50000000B4420000F0417047000070B50F235D
:100E6000C27801260178002A1ED0144A126802F4C2
:100E7000E062C2F5E062120AC2F10404D340457890
:100E8000A54082781A402A43120101F1E02181F83D
:100E90000024007800F01F018E404009800000F11E
:100EA000E020C0F8006170BD01F01F0086404809D5
:100EB000800000F1E020C0F8806170BD0CED00E022
:100EC00010B50021074C0022002004EBC1131A5476
:100ED000401CC0B28028FAD3491CC9B20829F3D3F8
:100EE00010BD0000040000202DE9F0417F2828D823
:100EF0003F2926D88418802C02D9C0F18002D2B2B2
:100F0000CC18402C02D9C1F14003DBB201250E4EB2
:100F1000871801EB030812E0044601F0070205FA06
:100F200002FCCA0806EBC21205E0135D23EA0C03BB
:100F30001355641CE4B2A742F7D8491CC9B28845CE
:100F4000EAD8BDE8F08100000400002038B5002197
:100F50004FF47A720020401C9042FCD3491C91420D
:100F6000F8D30121082000F019FA14208DF80300AD
:100F700003208DF802004FF48070ADF80000094C9A
:100F800069462046FFF7B0FA6115ADF800106946D2
:100F90002046FFF7A9FA012000F062F9012000F0D5
:100FA00067F938BD000C014070B505460024802665
:100FB00026FA04F0284000D0012000F059F9012061
:100FC00000F04EF9002000F04BF9641CE4B2082C4C
:100FD000EED3012000F044F9BDE87040002000F09D
:100FE0003FB910B5012000F043F9012000F038F9B5
:100FF000002000F03DF9BDE81040002000F030B9BD
:1010000010B5002000F034F9012000F029F9BDE806
:101010001040012000F02CB910B5FFF797FFAE206B
:1010200000F02EF9D52000F02BF9802000F028F9EF
:10103000A82000F025F93F2000F022F9D32000F08D
:101040001FF9002000F01CF9402000F019F9A12040
:1010500000F016F9C82000F013F9DA2000F010F9BA
:10106000122000F00DF9812000F00AF9CF2000F0E5
:1010700007F9D92000F004F9F12000F001F9DB2094
:1010800000F0FEF8302000F0FBF8A42000F0F8F8A3
:10109000A62000F0F5F88D2000F0F2F8142000F002
:1010A000EFF8BDE81040AF2000F0EAB80346012099
:1010B00000E05843491E4A1CFBD1704710B50C464E
:1010C00040F0B00000F0DCF8102040EA141000F00E
:1010D000D7F804F00F00BDE8104000F0D1B80000D0
:1010E00008B5203A082B0CD0062B09D1094B02EB8E
:1010F000420203EB420200920823062200F00EF89F
:1011000008BD054B03EB021200921023082200F0E9
:1011100005F808BD18330008282D00082DE9F84F00
:101120008246894690461C46BAF17F0F45D8B9F1F0
:101130003F0F42D82346424649465046FFF7D4FE69
:101140000025641EE01704EB5070012202EBE00062
:10115000DFF86CC009F0070100902BE0002325E0C8
:101160000AEB03047F2C23D805EBD906072E24D8DD
:101170000A9805FB08F718440CEBC61217F800E0B4
:1011800012F804B00EFA01FE4BEA0E0B02F804B09E
:10119000761C072E08D80CEBC612385C165DC1F120
:1011A0000807F840064316555B1CDBB24345D7D30E
:1011B0006D1CEDB20098A842D0DCBDE8F88F0000AD
:1011C000040000202DE9F04F8046DDF824A08B4676
:1011D00091461F4600240A2514E0391B491E0A20A7
:1011E000FFF764FFB9FBF0F6B6FBF5F005FB106204
:1011F00004FB0A803032C0B253465946FFF770FFF5
:10120000641CE4B2BC42E8D3BDE8F08F2DE9F041A4
:101210000546884616461F46002408E004FB075092
:10122000C0B23B464146FFF75BFF641CE4B2325D4F
:10123000002AF3D1BDE8F08170B50024074D0021EC
:101240002046FFF73BFF05EBC410802100F029F892
:10125000641CE4B2082CF2D370BD0000040000202E
:1012600002464FF480710148FFF798B9000C014025
:1012700002464FF400710148FFF790B9000C01409D
:1012800010B50446FFF7ADFE7820FFF78DFE002075
:10129000FFF78AFE2046FFF787FEBDE81040FFF704
:1012A000AFBE70B505460E46FFF79BFE7820FFF7F0
:1012B0007BFE4020FFF778FE002404E0285DFFF766
:1012C00073FE641CE4B2B442F8D3BDE87040FFF78B
:1012D00097BE30B587B00121084600F051F84FF0B5
:1012E0008045284600F091FB0024ADF81640ADF88B
:1012F000124044F61F61ADF814104720ADF81000FD
:101300008DF8184004A9284600F05EFC684600F0FD
:101310004BFC6020ADF80000ADF808400120ADF8AE
:101320000200ADF806406946284600F0B7FB694662
:10133000284600F06FFB6946284600F0F3FB0121C8
:10134000284600F040FB07B030BD01464FF080401A
:1013500000F034BC01464FF0804000F031BC014643
:101360004FF0804000F02EBC70470000034A5168E7
:1013700021F44041014351607047000000100240D9
:10138000054A002903D0D1690143D1617047D16971
:101390008143D1617047000000100240054A0029D6
:1013A00003D09169014391617047916981439161D3
:1013B00070470000001002407047FFF78ABF00002E
:1013C00010B5084901F0A8F9074901F09BFA07494F
:1013D00001F03AF901F062FABDE8104080B2FFF77F
:1013E000B4BF0000000034430000FA440000FA4398
:1013F00010B5084901F090F9074901F083FA07494F
:1014000001F022F901F04AFABDE8104080B2FFF77E
:10141000A1BF0000000034430000FA440000FA437A
:1014200010B5084901F078F9074901F06BFA07494E
:1014300001F00AF901F032FABDE8104080B2FFF77E
:101440008EBF0000000034430000FA440000FA435D
:10145000AFF300800CB5002201920092274801688A
:1014600041F4803101604FF4A063016801F4003160
:1014700000910199491C0191009911B90199994272
:10148000F3D10168890302D50121009100E00092A7
:101490000099012930D11A490A6842F010020A6005
:1014A0000A6822F003020A600A6842F002020A6037
:1014B0004168416041684160416841F48061416038
:1014C000416821F47C114160416841F4E8114160B8
:1014D000016841F08071016001688901FCD54168B3
:1014E00021F003014160416841F00201416041681F
:1014F000C1F381010229FAD10CBD000000100240A5
:101500000020024038B50446FFF7DAFC002108232A
:101510003AA20846FFF77AFE062339A200210820E6
:10152000FFF774FE082337A213210020FFF76EFE99
:10153000082339A200213A20FFF768FE082336A2CB
:1015400010213A20FFF762FE082334A20021412037
:10155000FFF75CFE06232AA200214A20FFF756FE71
:1015600008232FA223210020FFF750FE06232DA2DF
:1015700025210820FFF74AFE08232CA23021142041
:10158000FFF744FE06232BA237211B20FFF73EFE68
:10159000062100910123224637212120FFF712FE68
:1015A000062325A215210720FFF730FE062323A2DC
:1015B00015211420FFF72AFE062321A215214A2017
:1015C000FFF724FE06231FA215215820FFF71EFE59
:1015D00006231DA215211B20FFF718FE06231AA2C1
:1015E00015216020FFF712FE082317A22F214620A5
:1015F000FFF70CFEBDE83840FFF71EBE31000000CB
:1016000073743A005F5F5F5F5F5F5F5F5F5F5F5F45
:101610005F5F5F5F000000007C00000032000000A0
:1016200046000000696E616C3A0000004B20203DCE
:101630000000000048000000563100003D202D0051
:10164000563200003D0000003F3F3F3F3F0000009A
:1016500010B5FFF735FC082313A213210020FFF774
:10166000D5FD0021062315A20846FFF7CFFD08236C
:1016700016A20C210D20FFF7C9FD062315A2252176
:101680000020FFF7C3FD082316A230210D20FFF72D
:10169000BDFD062315A237211420FFF7B7FDBDE8D5
:1016A0001040FFF7C9BD00005F5F5F5F5F5F5F5F76
:1016B0005F5F5F5F5F5F5F5F000000004D61676EAF
:1016C00065746963206669656C643A004220203D58
:1016D000000000005363616C6520666163746F7283
:1016E000204B3A004B20203D000000004800000045
:1016F00010B5FFF7E5FB082307A20E211920FFF71D
:1017000085FD082307A220213320FFF77FFDBDE8D8
:101710001040FFF791BD00004D6561737572656DF6
:10172000656E74004D6F64650000000010B5FFF732
:10173000C7FB082307A20E211E20FFF767FD082321
:1017400007A220213320FFF761FDBDE81040FFF71D
:1017500073BD000043616C696272617465000000D2
:101760004D6F64650000000010B5002108231CA225
:101770000846FFF74BFD082319A210210020FFF7B0
:1017800045FD082316A220210020FFF73FFD082376
:1017900018A213210020FFF739FD06231AA2032106
:1017A0001C20FFF733FD08231BA20F212620FFF783
:1017B0002DFD08231AA210214920FFF727FD082339
:1017C00018A223210020FFF721FD062316A22521C0
:1017D0000820FFF71BFDBDE81040FFF72DBD0000FE
:1017E00020202020202020202020202020202020F9
:1017F000000000005F5F5F5F5F5F5F5F5F5F5F5F75
:101800005F5F5F5F000000005072657373206B655F
:10181000792E2E2E000000004E6578740000000026
:101820002D3E000046000000696E616C3A00000029
:1018300010B5FFF745FB082307A20E212620FFF76E
:10184000E5FC082306A223211E20FFF7DFFCBDE8EC
:101850001040FFF7F1BC00005374657020310000A8
:101860004368616E676520497300000010B5FFF79B
:1018700027FB082307A20E212620FFF7C7FC082319
:1018800006A223211E20FFF7C1FCBDE81040FFF790
:10189000D3BC000053746570203200004368616E51
:1018A000676520496D00000010B5FFF709FB0823AC
:1018B00007A20C212320FFF7A9FC082306A223215D
:1018C0001320FFF7A3FCBDE81040FFF7B5BC0000F4
:1018D00054657374696E670048616C6C2073656E43
:1018E000736F720010B5FFF7EBFA08230DA2042105
:1018F0002320FFF78BFC08230CA212213820FFF7CE
:1019000085FC08230AA220211620FFF77FFC08236C
:101910000AA230212820FFF779FCBDE81040FFF72C
:101920008BBC000057656C636F6D6500746F0000C1
:101930004D6561737572656D656E7400537973746E
:10194000656D00007047000010B50F48016841F058
:101950000101016041680D4A1140416001680C4A73
:1019600011400160016821F480210160416821F487
:10197000FE0141604FF41F018160FFF769FD0549D9
:101980004FF00060086010BD001002400000FFF83A
:10199000FFFFF6FE08ED00E010B501218C072046A0
:1019A00000F01DF8002807D00121204600F008F8BB
:1019B00002480168491C016010BD000000000020C1
:1019C000C94301827047002904D0018841F0010118
:1019D00001807047018821F00101018070470246B3
:1019E0000020138A0B4092890A40002B02D0002A63
:1019F00000D001207047002A03D082890A438281E7
:101A0000704782898A4382817047018921F00701EA
:101A10000181704730B5028C22F001020284028CF1
:101A20008388048B24F0700424F003050C882C4375
:101A300022F002020D8915434A882A43124DA8421A
:101A40000BD0124DA84208D0114DA84205D0114D1F
:101A5000A84202D0104DA8420FD122F008054A89B1
:101A60002A4322F004058A882A4323F4807323F44E
:101A700000738D891D43CB892B4383800483C988E0
:101A80008186028430BD0000002C014000340140FA
:101A900000400140004401400048014070B5028C04
:101AA00022F010020284028C8388048B24F4E04428
:101AB00024F440760D884FF6FF7404EA052535437B
:101AC00022F020020E8904EA061616434A8804EA28
:101AD00002123243114EB04202D0114EB04217D121
:101AE00022F080024E8904EA0616164326F04006CC
:101AF0008A8804EA0212324323F4806323F40063E9
:101B00008E8904EA86061E43CB8904EA83033343A5
:101B100083800583C9880187028470BD002C014041
:101B20000034014070B5028C22F480720284028C71
:101B30008388848B24F0700424F003040D882543EB
:101B400022F400720E894FF6FF7404EA062616434B
:101B50004A8804EA02223243114EB04202D0114EAA
:101B6000B04217D122F400664A8904EA02223243C5
:101B700022F480668A8804EA0222324323F48053E6
:101B800023F400538E8904EA06161E43CB8904EA27
:101B90000313334383808583C9888187028470BDA2
:101BA000002C0140003401400021018041808180EF
:101BB000C180018141818181C181704781867047E7
:101BC000018770478187704730B502881B4C1C4DD8
:101BD000A0420DD0A8420BD0B0F1804F08D0194BD5
:101BE000984205D0184B984202D0184B984203D126
:101BF00022F070034A881A43154B984206D0154BC1
:101C0000984203D022F44073CA881A4302808A881B
:101C100082850A880285A0420AD0A84208D00E4ACE
:101C2000904205D00D4A904202D00D4A904201D117
:101C3000097A01860121818230BD0000002C01401B
:101C4000003401400004004000080040000C004047
:101C500000100040001400400040014000440140DA
:101C600000480140FEE7000070B598B0FFF7D4F9D6
:101C7000FEF7CCFCFFF7A1FBFEF7B2FCFEF7C0FBC2
:101C8000FFF70EF8FFF72EFE40F6B8342046FEF7B9
:101C90000FFC284D2846FFF793FB2846FFF7A8FBCB
:101CA000FFF744FD2046FEF703FCFFF7C1FD4FF4AC
:101CB000FA642046FEF7FCFBFEF716FFFFF7D6FDA1
:101CC0002046FEF7F5FBFEF737FEFFF711FD4FF458
:101CD0009670FEF7EDFB0026602217496846FEF776
:101CE00073FA00246D46304600F082FC05EBC40315
:101CF0000CCB00F05FF800F02BF80646641C0C2CAF
:101D0000F1DB0E49304600F0FDFD0D4900F004FD09
:101D10006FF0010100F097FF0A4900F0F3FD0A4956
:101D200000F0FAFC094900F0EDFDFEF79FFC18B049
:101D3000002070BD0000B442C82C00080000E04044
:101D40000000C040000040400000F84100803B45DA
:101D500021F00042A2F16052B2F5801F01F0004371
:101D600028BFD2F17F6C0BD95FEA001C43EAC202A4
:101D700042EB507018BF704728BF20F00100704739
:101D8000B2F5801FBCBF184670474FEA410C1CF5E6
:101D9000001F02D2084600F07CBE70B500F0EAFADF
:101DA00000000089FFF7F6BF4FF00040A0F580006B
:101DB0007047000010B591EA030F48BF83F000435D
:101DC00000F13483841A71EB030C05D2121943EB32
:101DD0000C03001B61EB0C01DFF824E14FEA115406
:101DE000A4EB135C1EEA430F18BF9EEA445F73D056
:101DF00023EA0E03DCF1200E21EA045143F48013A0
:101E000032D322FA0CFE10EB0E0023FA0CFE41EB4B
:101E10000E01CCF1200E03FA0EFE10EB0E0051F174
:101E20000001B1F5801FCCF1200E32D201EB04513C
:101E300012FA0EF2BDE8104058BF7047401C38BF80
:101E40005FEA420218BF7047002814BF20F001006B
:101E500041F100014FEA410313F5001F38BF7047FD
:101E6000A1F1C04100F0D4BA012A43EB0302ACF166
:101E7000200CDCF11F0E32BF4FF0000E23FA0CF3E2
:101E800010EB030041EB0451B4EB115FD0D0A1EB98
:101E9000045101F5801149085FEA300001EB04515B
:101EA0000ED350F1000038BF12FA0EFE08D1BDE883
:101EB0001040C9E7401C38BF5FEA4202CAD1C3E7FD
:101EC000BDE810404FEA410313F5001F38BF7047CB
:101ED000A1F1C04100F09CBA9EEA445F08D011EA2B
:101EE0005E0FBDE8104004BF01F0004100207047C4
:101EF000BDE8104070B500F03DFA00BF64FBBE3E87
:101F00000000E0FF02494FF0000000F03CBE00BFBF
:101F10000000F87F2DE9C04130B4DFF8A0C23CEAF0
:101F2000111418BF3CEA131400F0EC8081EA030599
:101F30001CEA111444EAD57418BF1CEA131500F00A
:101F4000C780A4EB05044FF0004545EAC12145EAEE
:101F5000C32341EA505143EA525304F17F7499423A
:101F600004F500344FEAC0204FEAC22208BF904275
:101F700000F09C804FEA13650FF24016765D4FEA41
:101F8000134506FB05F7C7F1807706FB07F74FEA15
:101F9000D737A7FB03687642C8F58038A7FB06CE83
:101FA00038BFA8F1010807FB08E64FF0000EA6FBBA
:101FB000028CE6FB03CEDCF1000CCEF1004E38BF04
:101FC000AEF1010EA6FB0C584FF000074FF00005D4
:101FD000E6FB0E87A1FB08C6A0FB07CE16EB0E069C
:101FE00045F10005E1FB076515F1E04E7EBFA4F564
:101FF00080345FEA46066D4116F1800745F1000521
:102000004FEA17274FEA066647EA0567A6F1DE465C
:10201000B6F1805F4FEA15251FD9384624F0010C30
:1020200005EBC471BCF1FE6F01EB0C1102D8F0BCE2
:10203000BDE8008124425CBF01F5801E9EEAC47F9A
:1020400002D4F0BCBDE80081244238D4F0BCA1F138
:10205000C041BDE8004100F0DBB94FEAD22242EABC
:1020600043524FEAD323A7FB02864FEAD02040EA2F
:10207000415007FB03661EEA0E0F4FEAD12105FB14
:10208000026658BFA6EB0056B6EB00564FEA520E5A
:102090004EEAC37E18EB0E0E56EB530EBDD518EB71
:1020A00002085E417F1C55F10005B6E74FF480152C
:1020B0004FF000074FF000064FF00008ADE7F0BC0E
:1020C0004FF0000001F1C04101F00041BDE8008186
:1020D00011EA0C1F0CEA131500D00CE013EA0C1FD8
:1020E00000F025804FF00000F0BC81EA030101F010
:1020F0000041BDE80081F0BCBDE8004181EA030178
:1021000000F086B9F0BCBDE8004170B500F032F9CE
:10211000097EFC3E00F007B881EA03014FF00000A1
:1021200001F00041704781EA030100F071B9F0BC91
:10213000BDE800414FF0000021497047FFFDFBF969
:10214000F7F5F4F2F0EEEDEBE9E8E6E4E3E1E0DEEA
:10215000DDDBDAD8D7D5D4D3D1D0CFCDCCCBCAC85C
:10216000C7C6C5C4C2C1C0BFBEBDBCBBBAB9B8B783
:10217000B6B5B4B3B2B1B0AFAEADACABAAA9A8A876
:10218000A7A6A5A4A3A3A2A1A09F9F9E9D9C9C9B44
:102190009A999998979796959594939392919190EF
:1021A0008F8F8E8E8D8C8C8B8B8A89898888878780
:1021B0008685858484838382828181800000FF07F5
:1021C0000000F87F4FEA1153A3F58063D3F11E039B
:1021D000A8BFD3F1200C08DB4FF0004242EAC12235
:1021E00052EA505232FA03F0704709420BD4102BD6
:1021F000C4BF0020704703F5787CBCF1FF3F05D0D9
:102200004FF0FF3070474FF00000704770B500F09E
:10221000B1F800BF4992248000207047F0E7000029
:10222000DFF848C170B51CEA111E1EBF1CEA131569
:102230009EEA0C0F95EA0C0F00F06F8081EA030410
:1022400023EA4C134EEAD47E21EA4C1141F480116A
:1022500043F48013AE44A1FB024CA0FB0365AEF136
:102260007F7E361955EB0C05A1FB034C4CF10003A6
:10227000A0FB021C16EB0C06654153F1000309425A
:1022800018BF46F0010613F4007F0BD14FEA03316B
:102290004FEA0530340341EA155140EA16506FF019
:1022A00003020AE04FEAC3214FEAC520F40241EAE3
:1022B000555140EA56506FF0020202EB2E4201EBFC
:1022C000025585EACE710AD05FEA440C18BF24F0AB
:1022D000004450F1000041F1000120EAD47040F2C6
:1022E000FE7C624500D270BDA84214BF4FF080440E
:1022F0004FF04044002E08BF0024BEF1806FA8BFFD
:10230000A1F1C041BDE8704080F282804FF0000032
:1023100001F1C04101F0004170479EEA0C0F0CEA48
:10232000131518BF95EA0C0F06D04FF0000081EA94
:10233000030E0EF0004170BD00F01CF88900013E54
:1023400000F007B800F009B84FEA430C5FEA5C5CA4
:1023500008D081EA030100F05BB84FEA410C5FEA64
:102360005C5CF6D14FF00000014970470000FF07A8
:102370000000F87F0EF1020E2EF0030E5EF8046BE3
:10238000364205D4012A43EB030515F5001F12D888
:10239000012841EB010C1CF5001F0CD80ED14FEAAF
:1023A000D17C15F5001F0CEB4C0C0CF1020C08BF96
:1023B0004CEBD37C04E04FF0080C01E04FEAD37CF7
:1023C0000CEB4C0526FA05F606F00706B6F1040CF0
:1023D00006D20EEB860CBDE870404CF0010C604755
:1023E000DFE80CF0090B02024FF000414FF0000053
:1023F000A1F5002170BD19461046012851EB0104DA
:1024000018BFD4F5001484BF002001F0004170BD56
:102410000808A0F500114FEA3101704710B591EAA4
:10242000030F48BF83F000433FF5CCAC841A71EB37
:10243000030C07D212198CF0004C43EB0C03001B69
:1024400061EB0C01DFF8A4E14FEA1154A4EB135C3B
:102450001EEA430F18BF9EEA445F00F0B08023EAF3
:102460006E03524221EA0451C3EB6E0338BF5B1E78
:10247000DCF1200E25D322FA0CFE10EB0E0043FAFD
:102480000CFE41EB0E01CCF1200E03FA0EFE10EB18
:102490000E0051F10001CCF1200E29D412FA0EF2F7
:1024A00001EB0451BDE8104058BF7047401C1CBFF1
:1024B000B2F1004F704700280CBF491C20F001000A
:1024C000704712EB020E43EB030218BF4FF0010EF0
:1024D0004EEA4202ACF1200CDCF11E0E54D943FA54
:1024E0000CFE10EB0E0051F1FF31CCF11E0ED5D5D4
:1024F0000EF1010E12FA0EFE404141EB010101EB1B
:10250000445C5FEA5C5C10D910EBDE7001EB0451B7
:1025100038BFBEF1004FBDE8104018BF704700281B
:102520000CBF491C20F00100704730D24FEAD42C78
:1025300011F5001124F400641BD0B1FA81F20B3ABA
:10254000A41AA41ED2F12003914030FA03F31943D8
:10255000904001EBCC71002C01EB0451BDE8104020
:10256000A8BF704701F1C0414FF0000001F00041E9
:102570007047B0FA80F310FA03F100D110BDE41AED
:10258000173C4805C90AE4E701EB045110BD4910A6
:1025900001EB0451BDE810404FEA300002E04FF07B
:1025A000000170474A0008BF0042F8D0B2F5001F92
:1025B00028BF704701F000414FF0000070479EEACD
:1025C000445F07D011EA5E0FBDE8104004BF002150
:1025D00000207047BDE8104070B5FFF7CBFE00BF8C
:1025E00040DFF63E83F00041104670470000E0FFF8
:1025F00043004FEAD30C4FEA3C0C43401FBF400757
:102600000CF1605113F0FE4F70471CF0006F03D1C6
:1026100000200CF0004170470CF0004343EA50707A
:1026200010B540EACC0000F0EEF900BF00000092C7
:102630004FEA0001FFF7ECBE4FF000414FF0000001
:10264000A1F500217047000090EA010F48BF81F01A
:10265000004100F12A82421A3CBF801A89184FEAD1
:10266000D0524FF07F4C1CEA410FA2EBD15318BF60
:102670009CEA026F00F03B804FF0004C4CEA0020D7
:102680004CEA012121FA03FC10EB0C0C1ED202F1E2
:10269000FF325FEA1C2040EBC25038BF70471CF08D
:1026A0007F0F4FEA400C18BFBCF17F4F38BF704717
:1026B000C3F12003994008BF20F00100BCF17F4F17
:1026C00038BF7047A0F1C04000F0E3B94FEA3C00CA
:1026D000000A40EBC25028BF1CF0FF0F4FEA400C2D
:1026E000E6D018BFBCF17F4F38BF7047EAE79CEADD
:1026F000026F05D010EA5C0F08BF00F00040704781
:1027000010B500F080F900BF64FBBE3E014800F048
:102710003ABA00BF0000C07F4FF47F0C1CEAD01211
:102720001EBF1CEAD11392EA0C0F93EA0C0F00F0C3
:10273000858090EA010F48BF42F4807240F4000C9B
:1027400041F400002CF07F4120F07F4000B5814231
:10275000A2EB03020FF2081CACEB504EC0F10000DC
:102760009EF800E04FEA4E0E00FB0EFC38BF490019
:102770004FEA2C1C02F5FA020CFB0EF34FEACE1EB8
:102780004FEA112C4FEAC1210EEB635E42EB22426D
:102790000EFB0CFC4FEA1C5300FB03114FEA112CFB
:1027A0004FEA01310EFB0CFC4FEADC4C00FB0C1134
:1027B000C14228BF09184CEB03335DF804EB10EB62
:1027C000410143EBC250B2F57C0F38BF704729D5A9
:1027D00012F0F00F1CBF00F1C04000F00040704745
:1027E000008182838485868788898B8C8D8E8F91EA
:1027F0009293959697999A9C9D9FA0A2A3A5A7A80E
:10280000AAACAEB0B2B3B5B7B9BCBEC0C2C5C7C939
:10281000CCCED1D4D7D9DCDFE2E6E9ECF0F3F7FA9D
:10282000FE0000004FEA400C0CF1807CBCF17E4FB2
:1028300028BF7047B0F1C04000F02BB990EA010FFB
:102840000CEAD11348BF42F48072624538BF634539
:1028500007D213F47F0F16D080EA010000F0004089
:10286000704710B500F0CFF8097EFC3E00F005B8C7
:1028700080EA010000F00040704780EA010000F0AB
:10288000004000F006B912F47F0F04BF0248704701
:1028900080EA010000F0FDB80000C07FC10DD1F159
:1028A0009E0206DB4FEA002343F0004323FA02F0C6
:1028B0007047004207D54FEA4001B1F1FE4F02D206
:1028C0004FF00000704710B500F09DF84992248049
:1028D000002070476FEA200070470000B0FA80F3D4
:1028E00010FA03F2C3F19D030AD0D90501EB1220BF
:1028F000530638BF704700F1010008BF20F0010007
:10290000704700004FF47F0C1CEAD0121EBF1CEA77
:10291000D11392EA0C0F93EA0C0F00F0478090EA73
:10292000010F48BF42F480724FF0004C4CEA002087
:102930004CEA012102EB0302A0FB0113A2F5000205
:10294000002918BF43F001035B0028BF4FEA33039F
:1029500042EB22425FEA132C4CEBC2502EBFBCEB81
:10296000436FB2F57C0F70474FEA036CBCF1004F28
:1029700008BF20F00100B2F57C0F38BF70470BD5BF
:1029800082F0FF0212F5803FC8BF704700F1C040DF
:10299000D8BF00F00040704700F5000C5FEA4C0C17
:1029A00048BF7047B0F1C04000F073B890EA010F23
:1029B0000CEAD11348BF42F48072624538BF6345C8
:1029C00004D280EA010000F00040704710B500F02A
:1029D0001AF800BF8900013E00F007B800F009B8FE
:1029E0005FEA410C5FEA1C6C08D080EA010000F04D
:1029F00050B85FEA400C5FEA1C6CF6D14FF0004023
:102A0000A0F5800070470EF1020E2EF0030E5EF866
:102A1000044B244204D44FEA4102B2F17F4F11D853
:102A20004FEA4003B3F17F4F0CD80ED14FEAD07C70
:102A3000B2F17F4F0CEB4C0C0CF1020C08BF4CEBCD
:102A4000D17C04E04FF0080C01E04FEAD17C0CEBA4
:102A50004C0324FA03F404F00704B4F1040C06D286
:102A60000EEB840CBDE810404CF0010C6047DFE831
:102A70000CF0070802024FF00040A0F5800010BDE6
:102A80000846420018BFD2F1807288BF00F00040B3
:102A900010BDFF2141EAD050C005704790EA010FF8
:102AA00048BF81F000413FF5D6AD421A04D882F00C
:102AB0000042A0EB020011444FEAD0524FF07F4C8D
:102AC0001CEA410FA2EBD15318BF9CEA026F4AD017
:102AD0004FF0004C4CEA00204CEA012121FA03FCA3
:102AE000B0EB0C0C0FD412F0FE0F36D05FEA4C00A6
:102AF0001DD5001240EBC25038BF70471CF03F0F8D
:102B000018BF70470BE0A2F101025FEA1C2040EB06
:102B1000C25038BF70471CF07F0F18BF7047C3F119
:102B20002003994014BF401E20F001007047800828
:102B30004FEA122308BF7047B0FA80FCA2EB0C02E8
:102B4000CCF1280C60FA0CF093EA122F04BF00EBD2
:102B5000C25070474FEAC3707047130A5FEADC1037
:102B600008BF7047F6E79CEA026F04D010EA5C0FDA
:102B700008BF0020704710B5FFF745FF40DFF63E65
:102B800081F0004070470CF00F03092B08BF0820AC
:102B900000F07F800A2B0BD0082B18BF704708BFAE
:102BA0001CF0400F0AD04FF000004FF000017047BA
:102BB0001CF0400F18BF4FF0004070471CF0100F82
:102BC00008D020F0704300F07F4242EAD3014FEA80
:102BD0004370704700F0604021F07F4242EA0002FB
:102BE00001F07F4040EA727070474FF0FF0C4CF4E8
:102BF000E06C1CEA11531CBF9CEA030C9445C2BF55
:102C0000DA4201EB02517047002B0DD0BCF1000FEE
:102C10000FD0002A01F00041A4BF41F0E04141F093
:102C20007F614FF00000704701F000414FF000005D
:102C3000704750EA01334FF09B0C18BF4CF0806C8A
:102C40007FF460A970474FF0FF0212EAD0521CBF18
:102C500092F0FF038B42C2BFD14200EBC1507047DC
:102C6000002A0AD0002B0BD0002900F00040A4BF9E
:102C700040F0FE4040F40000704700F00040704714
:102C800043024FF00B0C18BF4CF0806C7FF43EAD4C
:102C900070471CF4801F11D01CF4E02F03D06FEAA2
:102CA000CC31490070474FF04050EFF3008222F0E2
:102CB000704242EA000282F3008870474FF0000041
:102CC000704700000000000000000000201C1241BE
:102CD000000000000824124100000000ACDB12419B
:102CE00000000000C8EB124100000000A463124184
:102CF00000000000647912410000000014901141AE
:102D000000000000DCB5114100000000F00A124193
:102D1000000000002C2D12410000000084321241FE
:102D200000000000B4141241000000000000000088
:102D30000000000000000000000000F8000000009B
:102D4000000000333000000000160E00160E0000D8
:102D5000000000000000000040C07840C078400043
:102D6000043F04043F040400007088FC08300000A5
:102D7000001820FF211E0000F008F000E0180000FD
:102D800000211C031E211E0000F0088870000000B6
:102D90001E21232419272110000000160E00000018
:102DA0000000000000000000000000E01804020025
:102DB000000000071820400000020418E000000096
:102DC0000040201807000000404080F08040400094
:102DD0000202010F01020200000000F000000000EA
:102DE0000101011F010101000000000000000000BE
:102DF00000B07000000000000000000000000000B3
:102E000000010101010101010000000000000000BB
:102E10000030300000000000000000008060180456
:102E2000006018060100000000E010080810E00033
:102E3000000F102020100F00001010F800000000FC
:102E40000020203F20200000007008080888700043
:102E500000302824222130000030088888483000C3
:102E60000018202020110E000000C02010F80000E3
:102E700000070424243F240000F80888880808007C
:102E80000019212020110E0000E010888818000091
:102E9000000F112020110E0000380808C838080063
:102EA0000000003F000000000070880808887000E3
:102EB000001C222121221C0000E010080810E00064
:102EC0000000312222110F00000000C0C0000000ED
:102ED0000000003030000000000000C0C000000012
:102EE000000080B07000000000008040201008004A
:102EF00000010204081020004040404040404000D3
:102F000004040404040404000008102040800000AD
:102F10000020100804020100007048080808F000B2
:102F20000000003036010000C030C828E810E00082
:102F30000718272423140B000000C038E00000000D
:102F4000203C23020227382008F888888870000077
:102F5000203F202020110E00C0300808080838004B
:102F6000071820202010080008F808080810E000C2
:102F7000203F202020100F0008F88888E808100063
:102F8000203F20202320180008F88888E808100037
:102F9000203F200003000000C0300808083800006F
:102FA00007182020221E020008F808000008F80870
:102FB000203F210101213F20000808F808080000F7
:102FC0000020203F2020000000000808F80808002A
:102FD000C08080807F00000008F888C028180800A2
:102FE000203F20012638200008F8080000000000DB
:102FF000203F20202020300008F8F800F8F80800D2
:10300000203F003F003F200008F830C00008F808CB
:10301000203F200007183F00E01008080810E000DB
:103020000F10202020100F0008F808080808F000F2
:10303000203F210101010000E01008080810E00015
:103040000F18242438504F0008F8888888887000AA
:10305000203F2000030C302000708808080838004A
:103060000038202121221C00180808F80808180040
:103070000000203F2000000008F808000008F808C1
:10308000001F202020201F000878880000C8380872
:10309000000007380E010000F80800F80008F800EA
:1030A000033C0700073C0300081868808068180884
:1030B00020302C03032C30200838C800C838080002
:1030C0000000203F2000000010080808C838080051
:1030D0002038262120201800000000FE02020200F5
:1030E0000000007F40404000000C30C000000000A5
:1030F000000000010638C00000020202FE000000CD
:10310000004040407F00000000201008040810200C
:1031100000000000000000000000000000000000AF
:103120008080808080808080000204080000000091
:10313000000000000000000000008080808000008F
:103140000019242222223F2008F80080800000007D
:10315000003F112020110E00000000808080000040
:10316000000E112020201100000000808088F8004F
:10317000000E112020103F20000080808080000081
:10318000001F222222221300008080F088888818E5
:103190000020203F202000000000808080808000F0
:1031A000006B94949493600008F800808080000085
:1031B000203F210000203F20008098980000000060
:1031C0000020203F20200000000000809898000090
:1031D00000C08080807F000008F8000080808000B0
:1031E000203F24022D302000000808F800000000D5
:1031F0000020203F20200000808080808080800090
:10320000203F20003F20003F0080800080800000A1
:1032100000203F2100203F200000808080800000AF
:10322000001F202020201F008080008080000000E0
:1032300080FFA12020110E0000000080808080000F
:10324000000E112020A0FF80808080008080800000
:1032500020203F212000010000008080808080002D
:103260000033242424241900008080E080800000A2
:103270000000001F202000008080000000808000EF
:10328000001F202020103F20808080000080808050
:1032900000010E30080601008080008000808080E0
:1032A0000F300C030C300F00008080008080800005
:1032B0000020312E0E312000808080000080808030
:1032C00080818E70180601000080808080808000E0
:1032D0000021302C2221300000000000807C0202FE
:1032E00000000000003F404000000000FF00000020
:1032F00000000000FF0000000002027C80000000CF
:103300000040403F000000000080404080000080FE
:1033100000000000000101000000000000000000AB
:10332000002F000000000700070000147F147F1426
:1033300000242A7F2A1200231308646200364955AC
:10334000225000000007000000001C224100000085
:1033500041221C000014083E08140008083E08081A
:10336000000000A060000008080808080000606075
:103370000000002010080402003E5149453E0000B4
:10338000427F4000004261514946002141454B3196
:10339000001814127F10002745454539003C4A4962
:1033A00049300001710905030036494949360006D4
:1033B0004949291E0000363600000000563600003C
:1033C00000081422410000141414141400004122B7
:1033D0001408000201510906003E4955592E007C8F
:1033E0001211127C007F49494936003E4141412279
:1033F000007F4141221C007F49494941007F090962
:103400000901003E4149497A007F0808087F000011
:10341000417F4100002040413F01007F08142241CC
:10342000007F40404040007F020C027F007F040884
:10343000107F003E4141413E007F09090906003EE0
:103440004151215E007F0919294600464949493109
:103450000001017F0101003F4040403F001F20402C
:10346000201F003F4038403F0063140814630007EA
:103470000870080700615149454300007F41410041
:10348000000204081020000041417F0000040201F6
:1034900002040040404040400000010204000020BF
:1034A00054545478007F48444438003844444420FD
:1034B00000384444487F00385454541800087E09AA
:1034C00001020018A4A4A47C007F08040478000072
:1034D000447D4000004080847D00007F102844002F
:1034E0000000417F4000007C04180478007C080440
:1034F000047800384444443800FC2424241800187C
:10350000242418FC007C0804040800485454542067
:1035100000043F444020003C4040207C001C2040F0
:10352000201C003C4030403C004428102844001C33
:10353000A0A0A07C004464544C440000087F4100DB
:103540000000007F00000000417F08000008040820
:10355000100800007435000800000020040000007E
:10356000280100087835000804000020640A0000E3
:08357000440100080000000006
:04000005080000ED02
:00000001FF
